{
  "_format": "hh-sol-artifact-1",
  "contractName": "TwitterContract",
  "sourceName": "contracts/TwitterContract.sol",
  "abi": [
    {
      "anonymous": false,
      "inputs": [
        {
          "indexed": false,
          "internalType": "address",
          "name": "recipient",
          "type": "address"
        },
        {
          "indexed": false,
          "internalType": "uint256",
          "name": "tweetId",
          "type": "uint256"
        }
      ],
      "name": "AddTweet",
      "type": "event"
    },
    {
      "anonymous": false,
      "inputs": [
        {
          "indexed": false,
          "internalType": "uint256",
          "name": "tweetId",
          "type": "uint256"
        },
        {
          "indexed": false,
          "internalType": "bool",
          "name": "isDeleted",
          "type": "bool"
        }
      ],
      "name": "DeleteTweet",
      "type": "event"
    },
    {
      "anonymous": false,
      "inputs": [
        {
          "indexed": false,
          "internalType": "uint256",
          "name": "tweetId",
          "type": "uint256"
        }
      ],
      "name": "UpdateTweet",
      "type": "event"
    },
    {
      "inputs": [
        {
          "internalType": "string",
          "name": "tweetText",
          "type": "string"
        },
        {
          "internalType": "bool",
          "name": "isDeleted",
          "type": "bool"
        }
      ],
      "name": "addTweet",
      "outputs": [],
      "stateMutability": "nonpayable",
      "type": "function"
    },
    {
      "inputs": [
        {
          "internalType": "uint256",
          "name": "tweetId",
          "type": "uint256"
        },
        {
          "internalType": "bool",
          "name": "isDeleted",
          "type": "bool"
        }
      ],
      "name": "deleteTweet",
      "outputs": [],
      "stateMutability": "nonpayable",
      "type": "function"
    },
    {
      "inputs": [],
      "name": "getAllTweets",
      "outputs": [
        {
          "components": [
            {
              "internalType": "uint256",
              "name": "id",
              "type": "uint256"
            },
            {
              "internalType": "address",
              "name": "username",
              "type": "address"
            },
            {
              "internalType": "string",
              "name": "tweetText",
              "type": "string"
            },
            {
              "internalType": "bool",
              "name": "isDeleted",
              "type": "bool"
            }
          ],
          "internalType": "struct TwitterContract.Tweet[]",
          "name": "",
          "type": "tuple[]"
        }
      ],
      "stateMutability": "view",
      "type": "function"
    },
    {
      "inputs": [],
      "name": "getMyTweets",
      "outputs": [
        {
          "components": [
            {
              "internalType": "uint256",
              "name": "id",
              "type": "uint256"
            },
            {
              "internalType": "address",
              "name": "username",
              "type": "address"
            },
            {
              "internalType": "string",
              "name": "tweetText",
              "type": "string"
            },
            {
              "internalType": "bool",
              "name": "isDeleted",
              "type": "bool"
            }
          ],
          "internalType": "struct TwitterContract.Tweet[]",
          "name": "",
          "type": "tuple[]"
        }
      ],
      "stateMutability": "view",
      "type": "function"
    },
    {
      "inputs": [
        {
          "internalType": "string",
          "name": "updatedText",
          "type": "string"
        },
        {
          "internalType": "uint256",
          "name": "tweetId",
          "type": "uint256"
        }
      ],
      "name": "updateTweet",
      "outputs": [],
      "stateMutability": "nonpayable",
      "type": "function"
    },
    {
      "stateMutability": "payable",
      "type": "receive"
    }
  ],
  "bytecode": "0x608060405234801561001057600080fd5b5061124e806100206000396000f3fe60806040526004361061004e5760003560e01c806339a547d01461005a5780635325613514610083578063aefedbc2146100ae578063e580339f146100d9578063f0312a371461010257610055565b3661005557005b600080fd5b34801561006657600080fd5b50610081600480360381019061007c9190610d18565b61012b565b005b34801561008f57600080fd5b50610098610208565b6040516100a59190610f8c565b60405180910390f35b3480156100ba57600080fd5b506100c36104ea565b6040516100d09190610f8c565b60405180910390f35b3480156100e557600080fd5b5061010060048036038101906100fb9190610fda565b610836565b005b34801561010e57600080fd5b5061012960048036038101906101249190611036565b6109c3565b005b3373ffffffffffffffffffffffffffffffffffffffff166001600083815260200190815260200160002060009054906101000a900473ffffffffffffffffffffffffffffffffffffffff1673ffffffffffffffffffffffffffffffffffffffff1614156102045781600082815481106101a7576101a6611076565b5b906000526020600020906004020160020190805190602001906101cb929190610aa5565b507fb1ebc204aec717a4fafa51d11b896f38d43e99a491417e1b2963acfdbf2b1d8a816040516101fb91906110b4565b60405180910390a15b5050565b60606000808054905067ffffffffffffffff81111561022a57610229610bb7565b5b60405190808252806020026020018201604052801561026357816020015b610250610b2b565b8152602001906001900390816102485790505b5090506000805b60008054905081101561043057600015156000828154811061028f5761028e611076565b5b906000526020600020906004020160030160009054906101000a900460ff161515141561041d57600081815481106102ca576102c9611076565b5b9060005260206000209060040201604051806080016040529081600082015481526020016001820160009054906101000a900473ffffffffffffffffffffffffffffffffffffffff1673ffffffffffffffffffffffffffffffffffffffff1673ffffffffffffffffffffffffffffffffffffffff168152602001600282018054610353906110fe565b80601f016020809104026020016040519081016040528092919081815260200182805461037f906110fe565b80156103cc5780601f106103a1576101008083540402835291602001916103cc565b820191906000526020600020905b8154815290600101906020018083116103af57829003601f168201915b505050505081526020016003820160009054906101000a900460ff16151515158152505083838151811061040357610402611076565b5b602002602001018190525081806104199061115f565b9250505b80806104289061115f565b91505061026a565b5060008167ffffffffffffffff81111561044d5761044c610bb7565b5b60405190808252806020026020018201604052801561048657816020015b610473610b2b565b81526020019060019003908161046b5790505b50905060005b828110156104e0578381815181106104a7576104a6611076565b5b60200260200101518282815181106104c2576104c1611076565b5b602002602001018190525080806104d89061115f565b91505061048c565b5080935050505090565b60606000808054905067ffffffffffffffff81111561050c5761050b610bb7565b5b60405190808252806020026020018201604052801561054557816020015b610532610b2b565b81526020019060019003908161052a5790505b5090506000805b60008054905081101561077c573373ffffffffffffffffffffffffffffffffffffffff166001600083815260200190815260200160002060009054906101000a900473ffffffffffffffffffffffffffffffffffffffff1673ffffffffffffffffffffffffffffffffffffffff161480156105fd575060001515600082815481106105da576105d9611076565b5b906000526020600020906004020160030160009054906101000a900460ff161515145b15610769576000818154811061061657610615611076565b5b9060005260206000209060040201604051806080016040529081600082015481526020016001820160009054906101000a900473ffffffffffffffffffffffffffffffffffffffff1673ffffffffffffffffffffffffffffffffffffffff1673ffffffffffffffffffffffffffffffffffffffff16815260200160028201805461069f906110fe565b80601f01602080910402602001604051908101604052809291908181526020018280546106cb906110fe565b80156107185780601f106106ed57610100808354040283529160200191610718565b820191906000526020600020905b8154815290600101906020018083116106fb57829003601f168201915b505050505081526020016003820160009054906101000a900460ff16151515158152505083838151811061074f5761074e611076565b5b602002602001018190525081806107659061115f565b9250505b80806107749061115f565b91505061054c565b5060008167ffffffffffffffff81111561079957610798610bb7565b5b6040519080825280602002602001820160405280156107d257816020015b6107bf610b2b565b8152602001906001900390816107b75790505b50905060005b8281101561082c578381815181106107f3576107f2611076565b5b602002602001015182828151811061080e5761080d611076565b5b602002602001018190525080806108249061115f565b9150506107d8565b5080935050505090565b600080805490509050600060405180608001604052808381526020013373ffffffffffffffffffffffffffffffffffffffff16815260200185815260200184151581525090806001815401808255809150506001900390600052602060002090600402016000909190919091506000820151816000015560208201518160010160006101000a81548173ffffffffffffffffffffffffffffffffffffffff021916908373ffffffffffffffffffffffffffffffffffffffff1602179055506040820151816002019080519060200190610910929190610aa5565b5060608201518160030160006101000a81548160ff0219169083151502179055505050336001600083815260200190815260200160002060006101000a81548173ffffffffffffffffffffffffffffffffffffffff021916908373ffffffffffffffffffffffffffffffffffffffff1602179055507f8b2db9b424f26463510ef5b02c16f2465836b52081b51d2112ec76102053bdea33826040516109b69291906111b7565b60405180910390a1505050565b3373ffffffffffffffffffffffffffffffffffffffff166001600084815260200190815260200160002060009054906101000a900473ffffffffffffffffffffffffffffffffffffffff1673ffffffffffffffffffffffffffffffffffffffff161415610aa1578060008381548110610a3f57610a3e611076565b5b906000526020600020906004020160030160006101000a81548160ff0219169083151502179055507f2430f837dd2fb40e08c064be9db3d0cf2a7a21f8fe716a2a41787dafc66a7e2a8282604051610a989291906111ef565b60405180910390a15b5050565b828054610ab1906110fe565b90600052602060002090601f016020900481019282610ad35760008555610b1a565b82601f10610aec57805160ff1916838001178555610b1a565b82800160010185558215610b1a579182015b82811115610b19578251825591602001919060010190610afe565b5b509050610b279190610b6b565b5090565b604051806080016040528060008152602001600073ffffffffffffffffffffffffffffffffffffffff168152602001606081526020016000151581525090565b5b80821115610b84576000816000905550600101610b6c565b5090565b6000604051905090565b600080fd5b600080fd5b600080fd5b600080fd5b6000601f19601f8301169050919050565b7f4e487b7100000000000000000000000000000000000000000000000000000000600052604160045260246000fd5b610bef82610ba6565b810181811067ffffffffffffffff82111715610c0e57610c0d610bb7565b5b80604052505050565b6000610c21610b88565b9050610c2d8282610be6565b919050565b600067ffffffffffffffff821115610c4d57610c4c610bb7565b5b610c5682610ba6565b9050602081019050919050565b82818337600083830152505050565b6000610c85610c8084610c32565b610c17565b905082815260208101848484011115610ca157610ca0610ba1565b5b610cac848285610c63565b509392505050565b600082601f830112610cc957610cc8610b9c565b5b8135610cd9848260208601610c72565b91505092915050565b6000819050919050565b610cf581610ce2565b8114610d0057600080fd5b50565b600081359050610d1281610cec565b92915050565b60008060408385031215610d2f57610d2e610b92565b5b600083013567ffffffffffffffff811115610d4d57610d4c610b97565b5b610d5985828601610cb4565b9250506020610d6a85828601610d03565b9150509250929050565b600081519050919050565b600082825260208201905092915050565b6000819050602082019050919050565b610da981610ce2565b82525050565b600073ffffffffffffffffffffffffffffffffffffffff82169050919050565b6000610dda82610daf565b9050919050565b610dea81610dcf565b82525050565b600081519050919050565b600082825260208201905092915050565b60005b83811015610e2a578082015181840152602081019050610e0f565b83811115610e39576000848401525b50505050565b6000610e4a82610df0565b610e548185610dfb565b9350610e64818560208601610e0c565b610e6d81610ba6565b840191505092915050565b60008115159050919050565b610e8d81610e78565b82525050565b6000608083016000830151610eab6000860182610da0565b506020830151610ebe6020860182610de1565b5060408301518482036040860152610ed68282610e3f565b9150506060830151610eeb6060860182610e84565b508091505092915050565b6000610f028383610e93565b905092915050565b6000602082019050919050565b6000610f2282610d74565b610f2c8185610d7f565b935083602082028501610f3e85610d90565b8060005b85811015610f7a5784840389528151610f5b8582610ef6565b9450610f6683610f0a565b925060208a01995050600181019050610f42565b50829750879550505050505092915050565b60006020820190508181036000830152610fa68184610f17565b905092915050565b610fb781610e78565b8114610fc257600080fd5b50565b600081359050610fd481610fae565b92915050565b60008060408385031215610ff157610ff0610b92565b5b600083013567ffffffffffffffff81111561100f5761100e610b97565b5b61101b85828601610cb4565b925050602061102c85828601610fc5565b9150509250929050565b6000806040838503121561104d5761104c610b92565b5b600061105b85828601610d03565b925050602061106c85828601610fc5565b9150509250929050565b7f4e487b7100000000000000000000000000000000000000000000000000000000600052603260045260246000fd5b6110ae81610ce2565b82525050565b60006020820190506110c960008301846110a5565b92915050565b7f4e487b7100000000000000000000000000000000000000000000000000000000600052602260045260246000fd5b6000600282049050600182168061111657607f821691505b6020821081141561112a576111296110cf565b5b50919050565b7f4e487b7100000000000000000000000000000000000000000000000000000000600052601160045260246000fd5b600061116a82610ce2565b91507fffffffffffffffffffffffffffffffffffffffffffffffffffffffffffffffff82141561119d5761119c611130565b5b600182019050919050565b6111b181610dcf565b82525050565b60006040820190506111cc60008301856111a8565b6111d960208301846110a5565b9392505050565b6111e981610e78565b82525050565b600060408201905061120460008301856110a5565b61121160208301846111e0565b939250505056fea2646970667358221220128c15c96112e4bfd1d3e76a24948e7b3cbfb73d6f06723fcdc64277d2d49b2c64736f6c63430008090033",
  "linkReferences": {},
  "deployedLinkReferences": {}
}