{
  "_format": "hh-sol-artifact-1",
  "contractName": "TwitterContract",
  "sourceName": "contracts/TwitterContract.sol",
  "abi": [
    {
      "anonymous": false,
      "inputs": [
        {
          "indexed": false,
          "internalType": "address",
          "name": "recipient",
          "type": "address"
        },
        {
          "indexed": false,
          "internalType": "uint256",
          "name": "tweetId",
          "type": "uint256"
        }
      ],
      "name": "AddTweet",
      "type": "event"
    },
    {
      "anonymous": false,
      "inputs": [
        {
          "indexed": false,
          "internalType": "uint256",
          "name": "tweetId",
          "type": "uint256"
        },
        {
          "indexed": false,
          "internalType": "bool",
          "name": "isDeleted",
          "type": "bool"
        }
      ],
      "name": "DeleteTweet",
      "type": "event"
    },
    {
      "anonymous": false,
      "inputs": [
        {
          "indexed": false,
          "internalType": "uint256",
          "name": "tweetId",
          "type": "uint256"
        }
      ],
      "name": "UpdateTweet",
      "type": "event"
    },
    {
      "inputs": [
        {
          "internalType": "string",
          "name": "tweetText",
          "type": "string"
        },
        {
          "internalType": "bool",
          "name": "isDeleted",
          "type": "bool"
        },
        {
          "internalType": "string",
          "name": "date",
          "type": "string"
        }
      ],
      "name": "addTweet",
      "outputs": [],
      "stateMutability": "nonpayable",
      "type": "function"
    },
    {
      "inputs": [
        {
          "internalType": "uint256",
          "name": "tweetId",
          "type": "uint256"
        },
        {
          "internalType": "bool",
          "name": "isDeleted",
          "type": "bool"
        }
      ],
      "name": "deleteTweet",
      "outputs": [],
      "stateMutability": "nonpayable",
      "type": "function"
    },
    {
      "inputs": [],
      "name": "getAllTweets",
      "outputs": [
        {
          "components": [
            {
              "internalType": "uint256",
              "name": "id",
              "type": "uint256"
            },
            {
              "internalType": "address",
              "name": "username",
              "type": "address"
            },
            {
              "internalType": "string",
              "name": "tweetText",
              "type": "string"
            },
            {
              "internalType": "bool",
              "name": "isDeleted",
              "type": "bool"
            },
            {
              "internalType": "string",
              "name": "date",
              "type": "string"
            }
          ],
          "internalType": "struct TwitterContract.Tweet[]",
          "name": "",
          "type": "tuple[]"
        }
      ],
      "stateMutability": "view",
      "type": "function"
    },
    {
      "inputs": [],
      "name": "getMyTweets",
      "outputs": [
        {
          "components": [
            {
              "internalType": "uint256",
              "name": "id",
              "type": "uint256"
            },
            {
              "internalType": "address",
              "name": "username",
              "type": "address"
            },
            {
              "internalType": "string",
              "name": "tweetText",
              "type": "string"
            },
            {
              "internalType": "bool",
              "name": "isDeleted",
              "type": "bool"
            },
            {
              "internalType": "string",
              "name": "date",
              "type": "string"
            }
          ],
          "internalType": "struct TwitterContract.Tweet[]",
          "name": "",
          "type": "tuple[]"
        }
      ],
      "stateMutability": "view",
      "type": "function"
    },
    {
      "inputs": [
        {
          "internalType": "string",
          "name": "updatedText",
          "type": "string"
        },
        {
          "internalType": "uint256",
          "name": "tweetId",
          "type": "uint256"
        },
        {
          "internalType": "string",
          "name": "newDate",
          "type": "string"
        }
      ],
      "name": "updateTweet",
      "outputs": [],
      "stateMutability": "nonpayable",
      "type": "function"
    },
    {
      "stateMutability": "payable",
      "type": "receive"
    }
  ],
  "bytecode": "0x608060405234801561001057600080fd5b50611450806100206000396000f3fe60806040526004361061004e5760003560e01c80633c6b89cb1461005a5780635325613514610083578063932e4e02146100ae578063aefedbc2146100d7578063f0312a371461010257610055565b3661005557005b600080fd5b34801561006657600080fd5b50610081600480360381019061007c9190610ea2565b61012b565b005b34801561008f57600080fd5b50610098610243565b6040516100a5919061115f565b60405180910390f35b3480156100ba57600080fd5b506100d560048036038101906100d091906111ad565b6105b7565b005b3480156100e357600080fd5b506100ec610768565b6040516100f9919061115f565b60405180910390f35b34801561010e57600080fd5b5061012960048036038101906101249190611238565b610b46565b005b3373ffffffffffffffffffffffffffffffffffffffff166001600084815260200190815260200160002060009054906101000a900473ffffffffffffffffffffffffffffffffffffffff1673ffffffffffffffffffffffffffffffffffffffff16141561023e5782600083815481106101a7576101a6611278565b5b906000526020600020906005020160020190805190602001906101cb929190610c28565b5080600083815481106101e1576101e0611278565b5b90600052602060002090600502016004019080519060200190610205929190610c28565b507fb1ebc204aec717a4fafa51d11b896f38d43e99a491417e1b2963acfdbf2b1d8a8260405161023591906112b6565b60405180910390a15b505050565b60606000808054905067ffffffffffffffff81111561026557610264610d41565b5b60405190808252806020026020018201604052801561029e57816020015b61028b610cae565b8152602001906001900390816102835790505b5090506000805b6000805490508110156104fd5760001515600082815481106102ca576102c9611278565b5b906000526020600020906005020160030160009054906101000a900460ff16151514156104ea576000818154811061030557610304611278565b5b90600052602060002090600502016040518060a0016040529081600082015481526020016001820160009054906101000a900473ffffffffffffffffffffffffffffffffffffffff1673ffffffffffffffffffffffffffffffffffffffff1673ffffffffffffffffffffffffffffffffffffffff16815260200160028201805461038e90611300565b80601f01602080910402602001604051908101604052809291908181526020018280546103ba90611300565b80156104075780601f106103dc57610100808354040283529160200191610407565b820191906000526020600020905b8154815290600101906020018083116103ea57829003601f168201915b505050505081526020016003820160009054906101000a900460ff1615151515815260200160048201805461043b90611300565b80601f016020809104026020016040519081016040528092919081815260200182805461046790611300565b80156104b45780601f10610489576101008083540402835291602001916104b4565b820191906000526020600020905b81548152906001019060200180831161049757829003601f168201915b5050505050815250508383815181106104d0576104cf611278565b5b602002602001018190525081806104e690611361565b9250505b80806104f590611361565b9150506102a5565b5060008167ffffffffffffffff81111561051a57610519610d41565b5b60405190808252806020026020018201604052801561055357816020015b610540610cae565b8152602001906001900390816105385790505b50905060005b828110156105ad5783818151811061057457610573611278565b5b602002602001015182828151811061058f5761058e611278565b5b602002602001018190525080806105a590611361565b915050610559565b5080935050505090565b60008080549050905060006040518060a001604052808381526020013373ffffffffffffffffffffffffffffffffffffffff16815260200186815260200185151581526020018481525090806001815401808255809150506001900390600052602060002090600502016000909190919091506000820151816000015560208201518160010160006101000a81548173ffffffffffffffffffffffffffffffffffffffff021916908373ffffffffffffffffffffffffffffffffffffffff1602179055506040820151816002019080519060200190610697929190610c28565b5060608201518160030160006101000a81548160ff02191690831515021790555060808201518160040190805190602001906106d4929190610c28565b505050336001600083815260200190815260200160002060006101000a81548173ffffffffffffffffffffffffffffffffffffffff021916908373ffffffffffffffffffffffffffffffffffffffff1602179055507f8b2db9b424f26463510ef5b02c16f2465836b52081b51d2112ec76102053bdea338260405161075a9291906113b9565b60405180910390a150505050565b60606000808054905067ffffffffffffffff81111561078a57610789610d41565b5b6040519080825280602002602001820160405280156107c357816020015b6107b0610cae565b8152602001906001900390816107a85790505b5090506000805b600080549050811015610a8c573373ffffffffffffffffffffffffffffffffffffffff166001600083815260200190815260200160002060009054906101000a900473ffffffffffffffffffffffffffffffffffffffff1673ffffffffffffffffffffffffffffffffffffffff1614801561087b5750600015156000828154811061085857610857611278565b5b906000526020600020906005020160030160009054906101000a900460ff161515145b15610a79576000818154811061089457610893611278565b5b90600052602060002090600502016040518060a0016040529081600082015481526020016001820160009054906101000a900473ffffffffffffffffffffffffffffffffffffffff1673ffffffffffffffffffffffffffffffffffffffff1673ffffffffffffffffffffffffffffffffffffffff16815260200160028201805461091d90611300565b80601f016020809104026020016040519081016040528092919081815260200182805461094990611300565b80156109965780601f1061096b57610100808354040283529160200191610996565b820191906000526020600020905b81548152906001019060200180831161097957829003601f168201915b505050505081526020016003820160009054906101000a900460ff161515151581526020016004820180546109ca90611300565b80601f01602080910402602001604051908101604052809291908181526020018280546109f690611300565b8015610a435780601f10610a1857610100808354040283529160200191610a43565b820191906000526020600020905b815481529060010190602001808311610a2657829003601f168201915b505050505081525050838381518110610a5f57610a5e611278565b5b60200260200101819052508180610a7590611361565b9250505b8080610a8490611361565b9150506107ca565b5060008167ffffffffffffffff811115610aa957610aa8610d41565b5b604051908082528060200260200182016040528015610ae257816020015b610acf610cae565b815260200190600190039081610ac75790505b50905060005b82811015610b3c57838181518110610b0357610b02611278565b5b6020026020010151828281518110610b1e57610b1d611278565b5b60200260200101819052508080610b3490611361565b915050610ae8565b5080935050505090565b3373ffffffffffffffffffffffffffffffffffffffff166001600084815260200190815260200160002060009054906101000a900473ffffffffffffffffffffffffffffffffffffffff1673ffffffffffffffffffffffffffffffffffffffff161415610c24578060008381548110610bc257610bc1611278565b5b906000526020600020906005020160030160006101000a81548160ff0219169083151502179055507f2430f837dd2fb40e08c064be9db3d0cf2a7a21f8fe716a2a41787dafc66a7e2a8282604051610c1b9291906113f1565b60405180910390a15b5050565b828054610c3490611300565b90600052602060002090601f016020900481019282610c565760008555610c9d565b82601f10610c6f57805160ff1916838001178555610c9d565b82800160010185558215610c9d579182015b82811115610c9c578251825591602001919060010190610c81565b5b509050610caa9190610cf5565b5090565b6040518060a0016040528060008152602001600073ffffffffffffffffffffffffffffffffffffffff16815260200160608152602001600015158152602001606081525090565b5b80821115610d0e576000816000905550600101610cf6565b5090565b6000604051905090565b600080fd5b600080fd5b600080fd5b600080fd5b6000601f19601f8301169050919050565b7f4e487b7100000000000000000000000000000000000000000000000000000000600052604160045260246000fd5b610d7982610d30565b810181811067ffffffffffffffff82111715610d9857610d97610d41565b5b80604052505050565b6000610dab610d12565b9050610db78282610d70565b919050565b600067ffffffffffffffff821115610dd757610dd6610d41565b5b610de082610d30565b9050602081019050919050565b82818337600083830152505050565b6000610e0f610e0a84610dbc565b610da1565b905082815260208101848484011115610e2b57610e2a610d2b565b5b610e36848285610ded565b509392505050565b600082601f830112610e5357610e52610d26565b5b8135610e63848260208601610dfc565b91505092915050565b6000819050919050565b610e7f81610e6c565b8114610e8a57600080fd5b50565b600081359050610e9c81610e76565b92915050565b600080600060608486031215610ebb57610eba610d1c565b5b600084013567ffffffffffffffff811115610ed957610ed8610d21565b5b610ee586828701610e3e565b9350506020610ef686828701610e8d565b925050604084013567ffffffffffffffff811115610f1757610f16610d21565b5b610f2386828701610e3e565b9150509250925092565b600081519050919050565b600082825260208201905092915050565b6000819050602082019050919050565b610f6281610e6c565b82525050565b600073ffffffffffffffffffffffffffffffffffffffff82169050919050565b6000610f9382610f68565b9050919050565b610fa381610f88565b82525050565b600081519050919050565b600082825260208201905092915050565b60005b83811015610fe3578082015181840152602081019050610fc8565b83811115610ff2576000848401525b50505050565b600061100382610fa9565b61100d8185610fb4565b935061101d818560208601610fc5565b61102681610d30565b840191505092915050565b60008115159050919050565b61104681611031565b82525050565b600060a0830160008301516110646000860182610f59565b5060208301516110776020860182610f9a565b506040830151848203604086015261108f8282610ff8565b91505060608301516110a4606086018261103d565b50608083015184820360808601526110bc8282610ff8565b9150508091505092915050565b60006110d5838361104c565b905092915050565b6000602082019050919050565b60006110f582610f2d565b6110ff8185610f38565b93508360208202850161111185610f49565b8060005b8581101561114d578484038952815161112e85826110c9565b9450611139836110dd565b925060208a01995050600181019050611115565b50829750879550505050505092915050565b6000602082019050818103600083015261117981846110ea565b905092915050565b61118a81611031565b811461119557600080fd5b50565b6000813590506111a781611181565b92915050565b6000806000606084860312156111c6576111c5610d1c565b5b600084013567ffffffffffffffff8111156111e4576111e3610d21565b5b6111f086828701610e3e565b935050602061120186828701611198565b925050604084013567ffffffffffffffff81111561122257611221610d21565b5b61122e86828701610e3e565b9150509250925092565b6000806040838503121561124f5761124e610d1c565b5b600061125d85828601610e8d565b925050602061126e85828601611198565b9150509250929050565b7f4e487b7100000000000000000000000000000000000000000000000000000000600052603260045260246000fd5b6112b081610e6c565b82525050565b60006020820190506112cb60008301846112a7565b92915050565b7f4e487b7100000000000000000000000000000000000000000000000000000000600052602260045260246000fd5b6000600282049050600182168061131857607f821691505b6020821081141561132c5761132b6112d1565b5b50919050565b7f4e487b7100000000000000000000000000000000000000000000000000000000600052601160045260246000fd5b600061136c82610e6c565b91507fffffffffffffffffffffffffffffffffffffffffffffffffffffffffffffffff82141561139f5761139e611332565b5b600182019050919050565b6113b381610f88565b82525050565b60006040820190506113ce60008301856113aa565b6113db60208301846112a7565b9392505050565b6113eb81611031565b82525050565b600060408201905061140660008301856112a7565b61141360208301846113e2565b939250505056fea264697066735822122051809732af2563e277b432b2ddc36a8852c277bf514dade0164f60f2a3ed301f64736f6c63430008090033",
  "linkReferences": {},
  "deployedLinkReferences": {}
}