{
  "_format": "hh-sol-artifact-1",
  "contractName": "TwitterContract",
  "sourceName": "contracts/TwitterContract.sol",
  "abi": [
    {
      "anonymous": false,
      "inputs": [
        {
          "indexed": false,
          "internalType": "uint256",
          "name": "tweetID",
          "type": "uint256"
        }
      ],
      "name": "AddRemoveLikeFromTweet",
      "type": "event"
    },
    {
      "anonymous": false,
      "inputs": [
        {
          "indexed": false,
          "internalType": "address",
          "name": "recipient",
          "type": "address"
        },
        {
          "indexed": false,
          "internalType": "uint256",
          "name": "tweetId",
          "type": "uint256"
        }
      ],
      "name": "AddTweet",
      "type": "event"
    },
    {
      "anonymous": false,
      "inputs": [
        {
          "indexed": false,
          "internalType": "uint256",
          "name": "tweetId",
          "type": "uint256"
        },
        {
          "indexed": false,
          "internalType": "bool",
          "name": "isDeleted",
          "type": "bool"
        }
      ],
      "name": "DeleteTweet",
      "type": "event"
    },
    {
      "anonymous": false,
      "inputs": [
        {
          "indexed": false,
          "internalType": "uint256",
          "name": "tweetId",
          "type": "uint256"
        }
      ],
      "name": "UpdateTweet",
      "type": "event"
    },
    {
      "inputs": [
        {
          "internalType": "uint256",
          "name": "tweetId",
          "type": "uint256"
        }
      ],
      "name": "addRemoveLikeFromTweet",
      "outputs": [],
      "stateMutability": "nonpayable",
      "type": "function"
    },
    {
      "inputs": [
        {
          "internalType": "string",
          "name": "tweetText",
          "type": "string"
        },
        {
          "internalType": "bool",
          "name": "isDeleted",
          "type": "bool"
        },
        {
          "internalType": "string",
          "name": "date",
          "type": "string"
        }
      ],
      "name": "addTweet",
      "outputs": [],
      "stateMutability": "nonpayable",
      "type": "function"
    },
    {
      "inputs": [
        {
          "internalType": "uint256",
          "name": "tweetId",
          "type": "uint256"
        },
        {
          "internalType": "bool",
          "name": "isDeleted",
          "type": "bool"
        }
      ],
      "name": "deleteTweet",
      "outputs": [],
      "stateMutability": "nonpayable",
      "type": "function"
    },
    {
      "inputs": [],
      "name": "getAllTweets",
      "outputs": [
        {
          "components": [
            {
              "internalType": "uint256",
              "name": "id",
              "type": "uint256"
            },
            {
              "internalType": "address",
              "name": "username",
              "type": "address"
            },
            {
              "internalType": "string",
              "name": "tweetText",
              "type": "string"
            },
            {
              "internalType": "bool",
              "name": "isDeleted",
              "type": "bool"
            },
            {
              "internalType": "string",
              "name": "date",
              "type": "string"
            },
            {
              "internalType": "address[]",
              "name": "likedBy",
              "type": "address[]"
            }
          ],
          "internalType": "struct TwitterContract.Tweet[]",
          "name": "",
          "type": "tuple[]"
        }
      ],
      "stateMutability": "view",
      "type": "function"
    },
    {
      "inputs": [],
      "name": "getMyTweets",
      "outputs": [
        {
          "components": [
            {
              "internalType": "uint256",
              "name": "id",
              "type": "uint256"
            },
            {
              "internalType": "address",
              "name": "username",
              "type": "address"
            },
            {
              "internalType": "string",
              "name": "tweetText",
              "type": "string"
            },
            {
              "internalType": "bool",
              "name": "isDeleted",
              "type": "bool"
            },
            {
              "internalType": "string",
              "name": "date",
              "type": "string"
            },
            {
              "internalType": "address[]",
              "name": "likedBy",
              "type": "address[]"
            }
          ],
          "internalType": "struct TwitterContract.Tweet[]",
          "name": "",
          "type": "tuple[]"
        }
      ],
      "stateMutability": "view",
      "type": "function"
    },
    {
      "inputs": [
        {
          "internalType": "string",
          "name": "updatedText",
          "type": "string"
        },
        {
          "internalType": "uint256",
          "name": "tweetId",
          "type": "uint256"
        },
        {
          "internalType": "string",
          "name": "newDate",
          "type": "string"
        }
      ],
      "name": "updateTweet",
      "outputs": [],
      "stateMutability": "nonpayable",
      "type": "function"
    },
    {
      "stateMutability": "payable",
      "type": "receive"
    }
  ],
  "bytecode": "0x608060405234801561001057600080fd5b50611b8b806100206000396000f3fe6080604052600436106100595760003560e01c80633c6b89cb14610065578063532561351461008e5780638cd36605146100b9578063932e4e02146100e2578063aefedbc21461010b578063f0312a371461013657610060565b3661006057005b600080fd5b34801561007157600080fd5b5061008c600480360381019061008791906114b3565b61015f565b005b34801561009a57600080fd5b506100a3610277565b6040516100b09190611839565b60405180910390f35b3480156100c557600080fd5b506100e060048036038101906100db919061185b565b610679565b005b3480156100ee57600080fd5b50610109600480360381019061010491906118b4565b610a83565b005b34801561011757600080fd5b50610120610c5a565b60405161012d9190611839565b60405180910390f35b34801561014257600080fd5b5061015d6004803603810190610158919061193f565b6110c6565b005b3373ffffffffffffffffffffffffffffffffffffffff166001600084815260200190815260200160002060009054906101000a900473ffffffffffffffffffffffffffffffffffffffff1673ffffffffffffffffffffffffffffffffffffffff1614156102725782600083815481106101db576101da61197f565b5b906000526020600020906006020160020190805190602001906101ff9291906111a8565b5080600083815481106102155761021461197f565b5b906000526020600020906006020160040190805190602001906102399291906111a8565b507fb1ebc204aec717a4fafa51d11b896f38d43e99a491417e1b2963acfdbf2b1d8a8260405161026991906119bd565b60405180910390a15b505050565b60606000808054905067ffffffffffffffff81111561029957610298611352565b5b6040519080825280602002602001820160405280156102d257816020015b6102bf61122e565b8152602001906001900390816102b75790505b5090506000805b6000805490508110156105bf5760001515600082815481106102fe576102fd61197f565b5b906000526020600020906006020160030160009054906101000a900460ff16151514156105ac57600081815481106103395761033861197f565b5b90600052602060002090600602016040518060c0016040529081600082015481526020016001820160009054906101000a900473ffffffffffffffffffffffffffffffffffffffff1673ffffffffffffffffffffffffffffffffffffffff1673ffffffffffffffffffffffffffffffffffffffff1681526020016002820180546103c290611a07565b80601f01602080910402602001604051908101604052809291908181526020018280546103ee90611a07565b801561043b5780601f106104105761010080835404028352916020019161043b565b820191906000526020600020905b81548152906001019060200180831161041e57829003601f168201915b505050505081526020016003820160009054906101000a900460ff1615151515815260200160048201805461046f90611a07565b80601f016020809104026020016040519081016040528092919081815260200182805461049b90611a07565b80156104e85780601f106104bd576101008083540402835291602001916104e8565b820191906000526020600020905b8154815290600101906020018083116104cb57829003601f168201915b505050505081526020016005820180548060200260200160405190810160405280929190818152602001828054801561057657602002820191906000526020600020905b8160009054906101000a900473ffffffffffffffffffffffffffffffffffffffff1673ffffffffffffffffffffffffffffffffffffffff168152602001906001019080831161052c575b5050505050815250508383815181106105925761059161197f565b5b602002602001018190525081806105a890611a68565b9250505b80806105b790611a68565b9150506102d9565b5060008167ffffffffffffffff8111156105dc576105db611352565b5b60405190808252806020026020018201604052801561061557816020015b61060261122e565b8152602001906001900390816105fa5790505b50905060005b8281101561066f578381815181106106365761063561197f565b5b60200260200101518282815181106106515761065061197f565b5b6020026020010181905250808061066790611a68565b91505061061b565b5080935050505090565b6000805b600083815481106106915761069061197f565b5b90600052602060002090600602016005018054905081101561075e57600083815481106106c1576106c061197f565b5b906000526020600020906006020160050181815481106106e4576106e361197f565b5b9060005260206000200160009054906101000a900473ffffffffffffffffffffffffffffffffffffffff1673ffffffffffffffffffffffffffffffffffffffff163373ffffffffffffffffffffffffffffffffffffffff16141561074b576001915061075e565b808061075690611a68565b91505061067d565b5080156109c157600060016000848154811061077d5761077c61197f565b5b90600052602060002090600602016005018054905061079c9190611ab1565b67ffffffffffffffff8111156107b5576107b4611352565b5b6040519080825280602002602001820160405280156107e35781602001602082028036833780820191505090505b5090506000805b600085815481106107fe576107fd61197f565b5b90600052602060002090600602016005018054905081101561097f573373ffffffffffffffffffffffffffffffffffffffff16600086815481106108455761084461197f565b5b906000526020600020906006020160050182815481106108685761086761197f565b5b9060005260206000200160009054906101000a900473ffffffffffffffffffffffffffffffffffffffff1673ffffffffffffffffffffffffffffffffffffffff161461096c57600085815481106108c2576108c161197f565b5b906000526020600020906006020160050181815481106108e5576108e461197f565b5b9060005260206000200160009054906101000a900473ffffffffffffffffffffffffffffffffffffffff168383815181106109235761092261197f565b5b602002602001019073ffffffffffffffffffffffffffffffffffffffff16908173ffffffffffffffffffffffffffffffffffffffff1681525050818061096890611a68565b9250505b808061097790611a68565b9150506107ea565b5081600085815481106109955761099461197f565b5b906000526020600020906006020160050190805190602001906109b992919061127c565b505050610a48565b600082815481106109d5576109d461197f565b5b9060005260206000209060060201600501339080600181540180825580915050600190039060005260206000200160009091909190916101000a81548173ffffffffffffffffffffffffffffffffffffffff021916908373ffffffffffffffffffffffffffffffffffffffff1602179055505b7fccf8b7fa7e4ba337298abcab3e86f9eed15161f6704764b68d52ae39b4d171c182604051610a7791906119bd565b60405180910390a15050565b600080805490509050606060006040518060c001604052808481526020013373ffffffffffffffffffffffffffffffffffffffff16815260200187815260200186151581526020018581526020018381525090806001815401808255809150506001900390600052602060002090600602016000909190919091506000820151816000015560208201518160010160006101000a81548173ffffffffffffffffffffffffffffffffffffffff021916908373ffffffffffffffffffffffffffffffffffffffff1602179055506040820151816002019080519060200190610b6b9291906111a8565b5060608201518160030160006101000a81548160ff0219169083151502179055506080820151816004019080519060200190610ba89291906111a8565b5060a0820151816005019080519060200190610bc592919061127c565b505050336001600084815260200190815260200160002060006101000a81548173ffffffffffffffffffffffffffffffffffffffff021916908373ffffffffffffffffffffffffffffffffffffffff1602179055507f8b2db9b424f26463510ef5b02c16f2465836b52081b51d2112ec76102053bdea3383604051610c4b929190611af4565b60405180910390a15050505050565b60606000808054905067ffffffffffffffff811115610c7c57610c7b611352565b5b604051908082528060200260200182016040528015610cb557816020015b610ca261122e565b815260200190600190039081610c9a5790505b5090506000805b60008054905081101561100c573373ffffffffffffffffffffffffffffffffffffffff166001600083815260200190815260200160002060009054906101000a900473ffffffffffffffffffffffffffffffffffffffff1673ffffffffffffffffffffffffffffffffffffffff16148015610d6d57506000151560008281548110610d4a57610d4961197f565b5b906000526020600020906006020160030160009054906101000a900460ff161515145b15610ff95760008181548110610d8657610d8561197f565b5b90600052602060002090600602016040518060c0016040529081600082015481526020016001820160009054906101000a900473ffffffffffffffffffffffffffffffffffffffff1673ffffffffffffffffffffffffffffffffffffffff1673ffffffffffffffffffffffffffffffffffffffff168152602001600282018054610e0f90611a07565b80601f0160208091040260200160405190810160405280929190818152602001828054610e3b90611a07565b8015610e885780601f10610e5d57610100808354040283529160200191610e88565b820191906000526020600020905b815481529060010190602001808311610e6b57829003601f168201915b505050505081526020016003820160009054906101000a900460ff16151515158152602001600482018054610ebc90611a07565b80601f0160208091040260200160405190810160405280929190818152602001828054610ee890611a07565b8015610f355780601f10610f0a57610100808354040283529160200191610f35565b820191906000526020600020905b815481529060010190602001808311610f1857829003601f168201915b5050505050815260200160058201805480602002602001604051908101604052809291908181526020018280548015610fc357602002820191906000526020600020905b8160009054906101000a900473ffffffffffffffffffffffffffffffffffffffff1673ffffffffffffffffffffffffffffffffffffffff1681526020019060010190808311610f79575b505050505081525050838381518110610fdf57610fde61197f565b5b60200260200101819052508180610ff590611a68565b9250505b808061100490611a68565b915050610cbc565b5060008167ffffffffffffffff81111561102957611028611352565b5b60405190808252806020026020018201604052801561106257816020015b61104f61122e565b8152602001906001900390816110475790505b50905060005b828110156110bc578381815181106110835761108261197f565b5b602002602001015182828151811061109e5761109d61197f565b5b602002602001018190525080806110b490611a68565b915050611068565b5080935050505090565b3373ffffffffffffffffffffffffffffffffffffffff166001600084815260200190815260200160002060009054906101000a900473ffffffffffffffffffffffffffffffffffffffff1673ffffffffffffffffffffffffffffffffffffffff1614156111a45780600083815481106111425761114161197f565b5b906000526020600020906006020160030160006101000a81548160ff0219169083151502179055507f2430f837dd2fb40e08c064be9db3d0cf2a7a21f8fe716a2a41787dafc66a7e2a828260405161119b929190611b2c565b60405180910390a15b5050565b8280546111b490611a07565b90600052602060002090601f0160209004810192826111d6576000855561121d565b82601f106111ef57805160ff191683800117855561121d565b8280016001018555821561121d579182015b8281111561121c578251825591602001919060010190611201565b5b50905061122a9190611306565b5090565b6040518060c0016040528060008152602001600073ffffffffffffffffffffffffffffffffffffffff1681526020016060815260200160001515815260200160608152602001606081525090565b8280548282559060005260206000209081019282156112f5579160200282015b828111156112f45782518260006101000a81548173ffffffffffffffffffffffffffffffffffffffff021916908373ffffffffffffffffffffffffffffffffffffffff1602179055509160200191906001019061129c565b5b5090506113029190611306565b5090565b5b8082111561131f576000816000905550600101611307565b5090565b6000604051905090565b600080fd5b600080fd5b600080fd5b600080fd5b6000601f19601f8301169050919050565b7f4e487b7100000000000000000000000000000000000000000000000000000000600052604160045260246000fd5b61138a82611341565b810181811067ffffffffffffffff821117156113a9576113a8611352565b5b80604052505050565b60006113bc611323565b90506113c88282611381565b919050565b600067ffffffffffffffff8211156113e8576113e7611352565b5b6113f182611341565b9050602081019050919050565b82818337600083830152505050565b600061142061141b846113cd565b6113b2565b90508281526020810184848401111561143c5761143b61133c565b5b6114478482856113fe565b509392505050565b600082601f83011261146457611463611337565b5b813561147484826020860161140d565b91505092915050565b6000819050919050565b6114908161147d565b811461149b57600080fd5b50565b6000813590506114ad81611487565b92915050565b6000806000606084860312156114cc576114cb61132d565b5b600084013567ffffffffffffffff8111156114ea576114e9611332565b5b6114f68682870161144f565b93505060206115078682870161149e565b925050604084013567ffffffffffffffff81111561152857611527611332565b5b6115348682870161144f565b9150509250925092565b600081519050919050565b600082825260208201905092915050565b6000819050602082019050919050565b6115738161147d565b82525050565b600073ffffffffffffffffffffffffffffffffffffffff82169050919050565b60006115a482611579565b9050919050565b6115b481611599565b82525050565b600081519050919050565b600082825260208201905092915050565b60005b838110156115f45780820151818401526020810190506115d9565b83811115611603576000848401525b50505050565b6000611614826115ba565b61161e81856115c5565b935061162e8185602086016115d6565b61163781611341565b840191505092915050565b60008115159050919050565b61165781611642565b82525050565b600081519050919050565b600082825260208201905092915050565b6000819050602082019050919050565b600061169583836115ab565b60208301905092915050565b6000602082019050919050565b60006116b98261165d565b6116c38185611668565b93506116ce83611679565b8060005b838110156116ff5781516116e68882611689565b97506116f1836116a1565b9250506001810190506116d2565b5085935050505092915050565b600060c083016000830151611724600086018261156a565b50602083015161173760208601826115ab565b506040830151848203604086015261174f8282611609565b9150506060830151611764606086018261164e565b506080830151848203608086015261177c8282611609565b91505060a083015184820360a086015261179682826116ae565b9150508091505092915050565b60006117af838361170c565b905092915050565b6000602082019050919050565b60006117cf8261153e565b6117d98185611549565b9350836020820285016117eb8561155a565b8060005b85811015611827578484038952815161180885826117a3565b9450611813836117b7565b925060208a019950506001810190506117ef565b50829750879550505050505092915050565b6000602082019050818103600083015261185381846117c4565b905092915050565b6000602082840312156118715761187061132d565b5b600061187f8482850161149e565b91505092915050565b61189181611642565b811461189c57600080fd5b50565b6000813590506118ae81611888565b92915050565b6000806000606084860312156118cd576118cc61132d565b5b600084013567ffffffffffffffff8111156118eb576118ea611332565b5b6118f78682870161144f565b93505060206119088682870161189f565b925050604084013567ffffffffffffffff81111561192957611928611332565b5b6119358682870161144f565b9150509250925092565b600080604083850312156119565761195561132d565b5b60006119648582860161149e565b92505060206119758582860161189f565b9150509250929050565b7f4e487b7100000000000000000000000000000000000000000000000000000000600052603260045260246000fd5b6119b78161147d565b82525050565b60006020820190506119d260008301846119ae565b92915050565b7f4e487b7100000000000000000000000000000000000000000000000000000000600052602260045260246000fd5b60006002820490506001821680611a1f57607f821691505b60208210811415611a3357611a326119d8565b5b50919050565b7f4e487b7100000000000000000000000000000000000000000000000000000000600052601160045260246000fd5b6000611a738261147d565b91507fffffffffffffffffffffffffffffffffffffffffffffffffffffffffffffffff821415611aa657611aa5611a39565b5b600182019050919050565b6000611abc8261147d565b9150611ac78361147d565b925082821015611ada57611ad9611a39565b5b828203905092915050565b611aee81611599565b82525050565b6000604082019050611b096000830185611ae5565b611b1660208301846119ae565b9392505050565b611b2681611642565b82525050565b6000604082019050611b4160008301856119ae565b611b4e6020830184611b1d565b939250505056fea2646970667358221220c992ae12bfe749f3f96bae639ac9aadede98f85df0a05eeb27ea45419ae174e864736f6c63430008090033",
  "linkReferences": {},
  "deployedLinkReferences": {}
}